:020000040800F2
:10000000280A002079010008CF1B0008FB13000814
:10001000CD1B00086B090008491D00080000000006
:10002000000000000000000000000000311C00087B
:100030006D09000800000000D11B0008451C0008E5
:100040009301000893010008930100089301000840
:100050009301000893010008930100089301000830
:100060009301000893010008930100089301000820
:100070009301000893010008930100089301000810
:100080009301000893010008930100089301000800
:1000900093010008930100089301000893010008F0
:1000A00093010008FD1C000893010008930100085B
:1000B00093010008930100080D1D0008930100083A
:1000C00093010008930100089301000893010008C0
:1000D00093010008930100089301000893010008B0
:1000E000930100089301000893010008DFF810D085
:1000F00000F098FB0048004711210008AFF3008092
:10010000280A00200246D2E84F0F411CC2E8431FD4
:1001100003B1F8E77047024652E8000F411C42E87D
:10012000001303B1F8E77047024652E8000F42E8B7
:10013000001303B1F9E77047024652E8000F83014C
:1001400003D3BFF32F8F0020704700F00040084317
:1001500042E8000303B1F0E77047024652E8000F9F
:10016000800103D2BFF32F8F0020704742E80013B5
:1001700003B1F3E70120704706488047064800476F
:10018000FEE7FEE7FEE7FEE7FEE7FEE7FEE7FEE747
:10019000FEE7FEE7F91C0008ED000008D2B201E01E
:1001A00000F8012B491EFBD270470022F6E710B57C
:1001B00013460A4604461946FFF7F0FF204610BDD5
:1001C000F0B480EA0102D40F4200B2EB410F02D238
:1001D0000246084611464A0042D0C30DDDB2C1F3C3
:1001E000C752AD1A202D35DAC1F3160141F40002D1
:1001F00004B15242C5F1200602FA06F12A41104428
:10020000B3EBD05F23D0C4B1012DA0EBC35009DC08
:10021000F0BC4FF0004202EAC352DBB200F500002E
:1002200000F074BA400000F1807000EBC350A0F100
:10023000807040EAD170490009E0490841EAC07184
:10024000A0EBC35000F50000400800EBC350F0BC29
:1002500000F053BA6142012202EB4101001BF6E7B4
:10026000F0BC704781F00041AAE780F00040A7E7AA
:1002700080EA010210B502F00043400022D04A009B
:100280001FD0010E01EB1261C0F35600C2F35602FB
:1002900040F4000042F40002A0FB022000047F3979
:1002A000140400D0401C50EA124001D44000491E02
:1002B000C2B20C0604EBD010401C4008802A02D0C9
:1002C00003E0002010BD20F00100002900DA00202A
:1002D000184310BD30B480EA010202F0004530F04E
:1002E000004221F0004013D090B1C30DD40DC2F3F1
:1002F0001601C0F31600E41A41F4000140F40002B4
:100300007D34914201D3641C00E04900002C02DAE4
:1003100030BC002070474FF400000023914201D30D
:10032000891A034340084FEA4101F7D151B1914284
:1003300002D14FF0004105E002D24FF0010101E08F
:100340006FF0010103EBC450284430BC00F0D5B974
:10035000420005D0C0F3C7525242914201DC002056
:10036000704700EBC15070472DE9FE4F804681EA8F
:100370000300C00F0C46009021F0004123F000451F
:10038000B8EB0200A94105D24046214690461C46E2
:100390000B46024623F00040104347D0270DC7F319
:1003A0000A00C3F30A510290401A019040286BDA08
:1003B000C3F3130040F4801B0098924620B1002341
:1003C000D2EB030A63EB0B0B01985946C0F14002D4
:1003D000504600F071F906460D4650465946019ABE
:1003E00000F079F910EB08006141002487EA11520E
:1003F00084EAE7731A4340D0009A62B3019A012A53
:100400004FEA075215DC001B61EB02014FF000427E
:1004100002EA0752CDE90042001C41F58011324644
:100420002B4600F0B0F903B0BDE8F08F40462146FE
:10043000F9E7001B61EB0201001C41F58013001875
:100440005B412018A2F5001747EB030140EAD57085
:10045000B6196D4111E06D084FEA360645EAC075E0
:100460004FEA0752001B61EB0201001C41F58011AD
:1004700049084FEA30000019514132462B4603B07B
:10048000BDE8F04F00F070B9009801224000002351
:10049000D0EB020263EBE073009821464FEAE07470
:1004A000B8EB000061EB0401E9E783F000435BE790
:1004B00081F0004158E72DE9FE4F81EA030404F082
:1004C000004421F0004100944FF0000B23F0004362
:1004D00050EA01045ED052EA03045BD0C3F30A542D
:1004E000C1F30A552C44A4F2F3340194A0FB025446
:1004F000C1F3130141F48011C3F3130343F48013D8
:1005000001FB024400FB034E840A970A44EA81542B
:1005100047EA8357A4FB076802958D0A05FB078508
:100520004FEA932C04FB0C542705029D4FEA065812
:1005300047EA1637B5EB08056EEB070C870E920EEF
:1005400047EA811742EA8312A7FB0201B6EB0B01CF
:1005500064EB00042B0D43EA0C335E1844EB1C5093
:10056000DA465146E7FB0201C5F313044FEA0B33A9
:1005700043EA14534FEA0432019C43EA0603A4F110
:100580000C040294009CCDE900B400F0FCF803B028
:10059000BDE8F08F00200146F9E7002801DBC0F13B
:1005A0000040002901DBC1F10041814201D201205C
:1005B000704700207047C10F80EAE0700844CA0706
:1005C0009623002100F0A2B896230022114600F0E5
:1005D0009DB80EB540F2334102910021CDE90011E2
:1005E0000A460B4600F0CFF803B000BD00F0004211
:1005F00020F00040C10DC0F3160040F400007F2938
:1006000001DA00207047962903DCC1F19601C84049
:1006100001E096398840002AF4D04042704720F02B
:100620000040C10DC0F3160040F400007F2901DA3C
:1006300000207047962903DCC1F19601C84070473D
:1006400096398840704700F0004230F000400AD0F0
:10065000C10D01F56071C0F3160042EA0151C208F4
:1006600040071143704700200146704701F00043E6
:1006700030B421F0004150EA010206D00A0DA2F583
:100680006072C1F31301002A02DC30BC0020704705
:10069000440F44EAC104C100E01830BC00EBC25072
:1006A00000F02BB8002801DBC0F10040002901DB7D
:1006B000C1F1004188427047202A04DB203A00FA49
:1006C00002F1002070479140C2F1200320FA03F3A9
:1006D000194390407047202A06DBCB17203A41FA95
:1006E00002F043EAE07306E041FA02F3D040C2F1BF
:1006F000200291400843194670470029A8BF70475F
:10070000401C490008BF20F00100704710B4B0FA47
:1007100080FC00FA0CF050EA010404BF10BC7047E2
:1007200049B1CCF1200421FA04F411FA0CF118BFFC
:10073000012121430843A3EB0C01CB1D4FEA0061CB
:100740004FEA102042BF002010BC704700EBC3509E
:1007500010440029A4BF10BC7047401C490008BFCA
:1007600020F0010010BC704710B5141E73F1000496
:1007700008DA401C41F1000192185B411A4301D193
:1007800020F0010010BD2DE9F04D92469B4611B1BD
:10079000B1FA81F202E0B0FA80F220329046FFF71F
:1007A0008BFF04460F4640EA0A0041EA0B0153461C
:1007B0005A46084313D0114653EA010019D0C8F134
:1007C0004002504600F040F805460E465046594655
:1007D0004246FFF771FF084305D0012004E02046A0
:1007E0003946BDE8F08D0020054346EAE0762C430B
:1007F00037430A986305E40AA0EB08000022FD0ACB
:1008000044EA47540A3002D500200146E9E70105D1
:1008100010196941DDE9084500196941BDE8F04D4D
:10082000A2E70000064C074D06E0E06840F0010337
:1008300094E8070098471034AC42F6D3FFF75AFC0F
:10084000902C0008B02C0008202A04DB203A21FA62
:1008500002F00021704721FA02F3D040C2F12002D9
:10086000914008431946704770B58C1810F8015B29
:1008700015F0070301D110F8013B2A1106D110F839
:10088000012B03E010F8016B01F8016B5B1EF9D13D
:100890002B0705D40023521E0DD401F8013BFAE7C3
:1008A00010F8013BCB1A921C03E013F8015B01F82E
:1008B000015B521EF9D5A142D8D3002070BDF0B51E
:1008C00081B04FF68311C3F62261FFF7D1FC4FF0E0
:1008D0007A51FFF775FC0446FFF788FE054620466F
:1008E00000210027FFF759FE002818BF013D2846C8
:1008F000FFF761FE01462046FFF7B4FC4FF0884148
:10090000FFF7B6FC0446FFF771FE054620464FF0A0
:100910004441FFF755FC0646B7EB552F14BF0025A1
:1009200026462846FFF750FE01463046FFF79AFC60
:1009300042F28C41C0F6000101EB8502064651F8F7
:10094000254055684FF07E503146FFF78BFC21461D
:10095000FFF78EFC044630462946FFF789FC014626
:100960002046FFF72DFC01B0F0BDFEE77047000008
:100970000749097851B10649C0F3C6228039C0F34E
:100980000220895CC14001F00100704700207047DF
:10099000000600202DE9F0410A4E06F11807B4695F
:1009A00000F04CF9054601463846FFF7BDFBA04272
:1009B000F5D1854203D203481030FFF7ACFB28463F
:1009C000BDE8F0810006002070B514460D460646CD
:1009D000FFF7CEFF90B1FFF7DDFFB2B2EFF3058175
:1009E00009B14FF40021114341F0407601462346FE
:1009F0002A463046BDE8704000F002B8012070BDC4
:100A00002DE9FF5F8B464FF0805101EADB089146EC
:100A10004900072501EA99079A46490001EA5A0662
:100A20002048FFF778FB014600F03F021E48890985
:100A300000EB02144FF4700000EA015000990143EA
:100A400041EA08013943314341F0406104F10C00AF
:100A5000FFF772FB41011CD580F0044101F000401A
:100A60002BF000420243226029F000420243626000
:100A70002AF00042024304F10C00A260FFF76DFB74
:100A800048B10848001DFFF746FB012004B0BDE84F
:100A9000F09F6D1EC4D103480830FFF73CFB0020D7
:100AA000F4E7000004060020800100202DE9F04357
:100AB0008146FF2901D2FF2A02D30020BDE8F0833E
:100AC0000024DFF840802046012606FA00F313EAEE
:100AD000090F10D00B460CE004EBD30503F0070C14
:100AE00018F8057006FA0CFC47EA0C0708F80570C0
:100AF0005B1C9342F0D9401C20340428E5D301202C
:100B0000DCE70000800500202DE9F0473B4D8846DA
:100B1000814600242C708021A5F18000FFF745FB61
:100B2000374B4FF6FF70182241F2210C074613F89D
:100B3000011B80EA01200821060407EA400001D5D4
:100B400080EA0C00491EF7D1521EF0D12D492B6AC4
:100B500001228B4201D0296202E06988814202D0E1
:100B60006880EA6137E0E869401CE861012832D01A
:100B7000254B002003EB0011CA68560102D522F074
:100B80004062CA60401C4028F4D3E86901282BD099
:100B900000F060F80646DEB1FE2200214846FFF76D
:100BA00085FFEF2211460F20FFF780FFFE2211463E
:100BB0000420FFF77BFFFFF7EDFE014600231348FB
:100BC000EA69FFF71DFFB8F1000F01D000F020F82F
:100BD0003046BDE8F0876C706C60AC604FF48061AB
:100BE0000948EC60FFF7E1FA00F034F8061E01D086
:100BF00000F02AF8C5E905042C61CCE700060020C6
:100C0000742400086B27A5E18001002000FF000389
:100C1000084810B5017809B1012010BD012101700B
:100C2000FFF7B8FE014600231A460348FFF7E8FE27
:100C3000F2E700000006002001FF000301484068C1
:100C400070470000001000E0014800687047000095
:100C5000440100200548016841F0807101600448AA
:100C6000016841F00101016001207047FCED00E0E6
:100C7000001000E02DE9F05F694D0C4693460646F2
:100C8000A96BFFF7EFFA0121FFF762FB6549FFF758
:100C900097FAA862FFF7D7FC634A644BFFF70BFC97
:100CA000FFF7E4FC824668620020A8606048614F5C
:100CB000844205DD21463846FFF7D4FA80F000442F
:100CC0005D48844204D939462046FFF779FA044644
:100CD0005A48EC64844202DC5948844201D9C5E98F
:100CE0001446A86DFFF7AFFC80468946E86BFFF716
:100CF000AAFC06460F460B98FFF76BFC514A524B75
:100D0000FFF7D9FB32463B46FFF7D5FB42464B4641
:100D1000FFF72AFBFFF7AAFCA86521465846FFF714
:100D2000A7FA4A49DFF82881EC636860884201D954
:100D3000696003E0404501DDC5F804805046FFF7D7
:100D4000BEFDA861686AFFF77EFC424C424E224617
:100D50003346FFF7AAFBFFF789FCFFF7B0FDE86118
:100D6000686AFFF770FC22463346FFF7FDFAFFF78B
:100D70007DFCFFF7A4FD2862696806468946A869DC
:100D8000FFF776FA0446E8604946E869FFF770FA2B
:100D90000746286149463046FFF76AFA0646686109
:100DA00041462046FFF70CFA0446E86241463846C1
:100DB000FFF706FA0746286341463046FFF700FA78
:100DC000DFF898800646686341462046FFF750FAF0
:100DD000DFF88C904946FFF77DFAFFF720FC214CA5
:100DE000206041463846FFF743FA4946FFF772FA5A
:100DF000FFF715FC271D386041463046FFF738FAEB
:100E00004946FFF767FAFFF70AFC391D08602068BA
:100E10002864386868640868A864BDE8F09F00002A
:100E2000180000200000B442399D52A246DF913FD5
:100E3000000034430000B443000034C30000C84243
:100E40000000C8C28DEDB5A0F7C6B03E0000C0C01E
:100E50000000C04066732D3852C1004000007A4542
:100E60000000C041342C014070B504460D46C06AF4
:100E700094F84920002192B3806AB4F8AE209042E1
:100E800001D3E18123E0B4F9A400E081F8B1A0F539
:100E9000FE42FF3A24D094F8C720012A0AD0B4F8C1
:100EA000AA10A288891A09B2A4F8A810B4F8C4201C
:100EB00091FBF2F1A4F8AC10618B6278484300EB2F
:100EC00080004100E069504391FBF0F001E029808F
:100ED00000E028802946204600F07BFE08E002E082
:100EE000B4F8B000F5E7E2782270E18100202980B3
:100EF0002988A18170BDB0F90E10B0F90420A1F5C8
:100F0000FE43FF3B0CD0B0F8AA300B44A0F8AA3047
:100F1000B0F8AC300B441A448280A0F8A01003E073
:100F2000B0F8A01011448180B0F9040070470000AF
:100F3000F0B54278C38A848A53435443A2B24FF631
:100F4000FF7404EA4204826A1B04C16A4FEA124534
:100F50009B0CA0F8C2506AD003EB43035B0042F243
:100F60001076B6FBF3F3A0F8C0309BB26B434FF49E
:100F70007A7593FBF5F30626B2FBF6F5A0F8AE30D2
:100F80001B04C0F8B830B2FBF6F2A0F8B040438BB7
:100F900002EB8202B5FBF3F55200B2FBF4F2C76933
:100FA0007D43C0F8B450C0F8BC2090F8C62053432D
:100FB000828CB3FBF2F2521EA0F8C420012280F80A
:100FC000492090F8482013051F4A147801F11802AF
:100FD000224414681C4EF025F61D3778BD40AC4302
:100FE0001B0CFDB2AB401C431460B0F8AE208A620B
:100FF0004A6942F001024A6100220A610B6843F02B
:1010000004030B60CB6843F00203CB60CB6843F072
:101010000103CB604A620A6A42F001020A620A686E
:1010200042F001020A6090F82620002108E0962391
:1010300099E700EB8104D0F8B830491CC9B22365A8
:101040009142F6D3F0BD00006424000870B5044658
:1010500090F82000E0B1D4E90E0100F05CFA80F0D5
:1010600001008500D4E9100100F055FA45EA400579
:10107000D4E90C0100F04FFA0543E8B284F8A65019
:1010800007282AD2DFE800F029101A16240C1F00C6
:10109000D4E9100100F03FFA8500D4E90E01E3E73E
:1010A000608C41F2555102E0608C43F6FF710844B8
:1010B000A08015E0608C46F6AA21F8E7608CA0F5C8
:1010C000D440AA38F4E7608CA0F57C50FF38EFE7F5
:1010D000608CA0F5A8505538EAE7002084F8490054
:1010E000A088A4F8AA0070BD2DE9F0470446C66A9E
:1010F00090F84900002874D094F8A65094F9A29072
:1011000094F8200030B3D4E90E0100F004FA80F026
:1011100001008700D4E9100100F0FDF947EA40071B
:10112000D4E90C0100F0F7F90743FBB284F8A6708C
:10113000012100224FF0FF3042F6AA2745F2555C0C
:1011400047F6FF7A072B62D2DFE803F061173124FC
:101150004F0C3F00D4E9100100F0DDF98700D4E91D
:101160000E01D9E7042D02D0012D03D051E084F8FF
:10117000A21048E084F8A20006E0052D02D0032D5D
:1011800005D046E084F8A210608C38443CE084F836
:10119000A20006E0012D02D0022D05D039E084F82E
:1011A000A210608C60442FE084F8A20006E0032DBA
:1011B00002D0062D06D02CE084F8A210638C03EB3D
:1011C0000A0021E084F8A20006E0022D02D0042DDE
:1011D00008D01EE084F8A210608CA0F5AA40553813
:1011E00012E0C7E084F8A20006E0062D02D0052D2B
:1011F00007D00EE084F8A210608CA0F52850AA3821
:1012000002E084F8A200608CA4F8AA0001E084F84F
:10121000492094F9A2304B4503D084F84D2084F83E
:10122000982094F8C700012802D1B4F8AA00A08041
:1012300094F84C00F0B194F84D0094F826309842A0
:1012400004D294F84D00401C84F84D00706B85B2B8
:10125000B06A83B294F84E0094F84E7005EB0040EB
:10126000CFB15B1C9BB2584394F84B3043B184F828
:101270004B2026E014F84C0F401C2070706B79E076
:10128000B36AB4F8AE50AB421BD2B36A5B1CB36214
:1012900084F84B1015E094F84A702FB19B1C99B25A
:1012A000484384F84A200CE05B1C9BB25843B5F5D8
:1012B000AA4F06D2B36A23B1B36A5B1EB36284F845
:1012C0004A10D4F8BC10814252D894F89830D4F81F
:1012D0009C1004EB83031B6DC91AC4F89C10D4F84E
:1012E000B810814208D894F9A230594394F8983044
:1012F00004EB8303196511E094F8981004EB810165
:10130000086594F8981004EB810394F9A210414306
:101310001965D4F89C301944C4F89C1094F89810BE
:10132000491CC9B284F8981094F82630994201D12A
:1013300084F8982094F84910C1B194F84D3094F88D
:1013400026108B4207D2D4F8B410B1FBF0F094F918
:10135000A210484307E0D4F89C0090FBF1F0D4F8C9
:10136000B41091FBF0F0A4F8A40001E0A4F8A420CC
:1013700084F84E200020BDE8F08770B50446C16AAD
:1013800090F84900B8B394F84E00401C84F84E0021
:10139000886A4FF47A71401C4843B4F8C010B4F81E
:1013A000C2205143B1FBF0F094F84E1080B281425C
:1013B00021D30025E5812046FFF748FE84F84E50F2
:1013C00084F84C50002006E004EB8002D4F8B810FA
:1013D000401CC0B2116594F826108142F4D884F8FC
:1013E0004D50A4F8A45084F89850D4F8B800C9B26D
:1013F0004843C4F89C00002070BDFEE7044908B5CE
:10140000CA690243CA61C9690140009108BD000070
:1014100000100240044908B58A6902438A6189695B
:101420000140009108BD000000100240F0B50A68BC
:10143000C2F30F2595FAA5F2B2FA82F266E0012313
:1014400093402B4261D0082A03D240F2011393400B
:1014500006E0A2F108034FF001149C4044F08063C1
:101460000C69C6681F0A97FAA7F7B7FA87F726EA42
:101470001326BC402643C66093FAA3F700EB13641F
:10148000B7FA87F74FEA870C0F27266807FA0CF799
:10149000BE4393FAA3F7D1F804E0B7FA87F7BF0089
:1014A0000EFA07FE46EA0E0626604F68012F01D0AD
:1014B000092F2AD193FAA3F7B7FA87F74FEA870CD7
:1014C000032707FA0CF7BE4393FAA3F7B7FA87F797
:1014D000D1F808E0BF000EFA07FE93FAA3FC46EA33
:1014E0000E06BCFA8CFC4FEA8C0E4FF0040C266002
:1014F0000CFA0EFC93FAA3F3B3FA83F3CF689B00C4
:1015000026EA0C069F403E432660521C35FA02F341
:1015100095D10020F0BD8068090A81430804000CC1
:1015200001D0002070470120704730B591FAA1F436
:1015300000EB1160B4FA84F4A5000F24AC4091FADA
:10154000A1F10368B1FA81F18900A3438A401343F2
:10155000036030BDC268C1F30F2121EA02030A40D3
:1015600043EA0241016170474FF47A71B0FBF1F137
:101570004FF0E020491E4161002181610721016196
:1015800070470000014908607047000044010020D6
:101590000A7B8B681A434B6822F480621A430B68FB
:1015A00022F400621A43CB8922F480521A430B6959
:1015B00022F400521A43496922F480420A4322F479
:1015C00000420A434264002070470000F0B5026800
:1015D000154B164C164D4FF08046984205D0B04240
:1015E00003D0A04201D0A84203D14F6822F070027C
:1015F0003A43984205D0B04203D0A04201D0A8425D
:1016000003D1CC6822F44072224302608A68C2622D
:101610000A888262984201D109690163416941F0F7
:10162000010141610020F0BD002C01400004004098
:1016300000080040012919D0042919D0102919D017
:10164000402919D0B1F5807F18D0B1F5806F17D03F
:1016500006210C4A1830525C10440268094BDB1D0D
:101660005B5C042199408A43026070470021F0E7E7
:101670000121EEE70221ECE70321EAE70421E8E794
:101680000521E6E748240008012919D0042919D0CA
:10169000102919D0402919D0B1F5807F18D0B1F5A3
:1016A000806F17D006210C4A1830525C1044026833
:1016B000094BDB1D5B5C082199400A4302607047BF
:1016C0000021F0E70121EEE70221ECE70321EAE740
:1016D0000421E8E70521E6E748240008F0B50123E6
:1016E0000024604D012908D0102933D0B1F5807F46
:1016F00064D0B1F5805F5FD191E0016A21F0010112
:101700000162016A43688669176826F073063E43E2
:10171000176921F002013943576821F0010139436B
:10172000A84212D1556921F0080141EA8501956866
:1017300021F0040141EA8501956923F480732B436C
:10174000D56923F4007343EA450343608661D26898
:1017500042632FE0016A21F010010162016A4368CF
:101760008669176826F4E64646EA0726176921F0D7
:10177000200141EA0711576821F0100141EA0711E1
:10178000A84213D1556921F0800141EA851195687D
:1017900021F0400141EA8511956923F4806343EA11
:1017A0008503D56923F4006343EAC503436086617A
:1017B000D2688263016223461846F0BD016A21F4B3
:1017C00080710162036A4168C669176826F0730672
:1017D0003E43176923F4007343EA0723576823F451
:1017E000807343EA0723A84213D1556923F40063A9
:1017F00043EA8523956823F4806343EA852395694A
:1018000021F4805141EA0511D56921F4005141EAE2
:1018100045114160C661D168C1630362CBE7016ACB
:1018200021F480510162066A4168C369176823F494
:10183000E64343EA0723176926F4005646EA0736CB
:10184000576826F4805646EA0736A84204D19569BF
:1018500021F4804141EA85114160C361D16801648E
:101860000662A8E7002C014010B586B01421684636
:10187000FEF79BFC2020FFF7CDFD1020FFF7CAFDEF
:101880000420FFF7C7FD0820FFF7C4FD0B4940F215
:10189000027048610A4C042244F240012046FFF7DE
:1018A00044FE042248F280012046FFF73EFE042257
:1018B00004492046FFF739FE06B010BD000801407C
:1018C000000C014001000104F0B599B0142113A8E7
:1018D000FEF76BFC20216846FEF767FC18210DA877
:1018E000FEF763FC142108A8FEF75FFC4FF40060CC
:1018F000FFF790FD4B480068C0F30220011D072947
:1019000001D2002000E0C01E0024012604FA00F1EC
:101910000801454981F800044FF0E0217006C1F844
:10192000000140F69F70CDE91440404DADF84C40A9
:10193000169413A928461794FFF748FE286820F04C
:1019400080002860A86844F207018843A86001214C
:101950002846FFF799FE6020CDE900064FF4FA70A3
:101960000296CDE90304059406946A4601212846AF
:101970000794FFF7B3FE01212846FFF75BFE102115
:101980002846FFF781FE01966A46102128460296F6
:10199000FFF7A4FE10212846FFF74CFEAF1539468D
:1019A0002846FFF771FE01966A4639462846029698
:1019B000FFF794FE39462846FFF73CFE686820F0A2
:1019C00070006860A86820F08000A86014208DF87E
:1019D00040000D940E940F94ADF842406814CDE988
:1019E00011040DA92846FFF7D3FD0820FFF712FDCB
:1019F0000F4809270326CDE90807CDE90A6408A99D
:101A00000C48FFF713FD0C48CDE90807CDE90A643F
:101A100008A90A48FFF70AFDE86840F00100E860FD
:101A200019B0F0BD0CED00E019E000E0002C014021
:101A3000E000E004000C014007000704000801403A
:101A400010B594B014216846FEF7AFFB202105A81D
:101A5000FEF7ABFB18210DA8FEF7A7FB0120FFF74F
:101A6000CDFC2320ADF8000000204FF6FF71CDE93A
:101A7000010103904FF08044049069462046FFF72F
:101A8000A5FD206820F080002060A06844F20701D6
:101A90008843A060206840F00100206014B010BDB1
:101AA00070B592B0142108A8FEF77FFB202168468C
:101AB000FEF77BFB14210DA8FEF777FB0420FFF750
:101AC0009DFC0820FFF7A6FC3C480D9004200E90DA
:101AD0000DA93B48FFF7AAFC0025ADF820504FF6B2
:101AE000FF70CDE90950374C08A920460B95FFF748
:101AF0006DFD206820F080002060A06844F207019E
:101B00008843A060206A20F0110020622E480178EE
:101B10002C481830084403682B4903220E310E78F4
:101B2000B24093431343036003680E780C22B24023
:101B3000934305FA06F21343036003680E78F0211D
:101B4000B1408B4313430360216A00201E4B0A22DD
:101B500015331E78B2409143F2B2904001432162A6
:101B6000606840F080006060A06820F0700040F085
:101B70004000A060A06820F0070040F00400A060D2
:101B80007020CDE90005029503950495059506950D
:101B90006A46102120460795FFF7A0FD1021204638
:101BA000FFF748FD606820F0700040F05000606072
:101BB000A06820F08000A06012B070BDC1C0010418
:101BC000000C01400008004048240008FEE7704770
:101BD000704770B5B1F900600125C4780023027820
:101BE000002E02DA714289B200E00988868A8E42AC
:101BF00000D20123C68A8E4200D90123B0F9121007
:101C0000002902DA494289B200E0418A068B8E42FD
:101C100000D323B1A24205D2521CD2B202E0A242AA
:101C200000D20022A24200D100250270284670BDD9
:101C30007047000002494FF4E060086170470000FF
:101C40000008014008B50020ADF8000069460248D0
:101C5000FFF70AF908BD00007C000020234810B5FA
:101C6000016821F0070141F002010160016801F003
:101C700007010229FAD11E48016841F48031016050
:101C80000168C1F340410029FAD0416821F47C1178
:101C900041F4E8114160016841F080710160016820
:101CA000C1F340610029FAD0416821F0F0014160A0
:101CB000416821F4E06141F480614160416821F4B0
:101CC00060514160416821F0030141F0020141602F
:101CD000416801F00C010829FAD1064C2046FFF7B3
:101CE00043FC2046BDE81040FFF74CBC00200240FA
:101CF0000010024000A24A047047000002496FF041
:101D00000100086100F0A0B9002C014010B50D4C95
:101D1000E06A0169C1F3000129B16FF001010161BD
:101D20002046FFF72AFBE06A0169C1F34001002960
:101D300007D06FF002010161BDE810400148FFF7D4
:101D4000D3B910BD7C000020FEE7002809DB00F0BD
:101D50001F02012191404009800000F1E020C0F8FD
:101D60000011704702E008C8121F08C1002AFAD10A
:101D700070477047002001E001C1121F002AFBD10B
:101D8000704700002DE9FF5F06469D489D4D0E9F60
:101D90000C46814204DD2846FEF764FA80F00044D8
:101DA0009948844204D929462046FEF709FA044698
:101DB000964D9748EC64844202DC9648844201D9EF
:101DC000C5E914463046A96BFEF74CFA0121FEF72F
:101DD000BFFA9149FEF7F4F9A862FEF734FC8F4A86
:101DE0008F4BFEF768FBFEF741FC68622978DFF84D
:101DF00034B287F0004600296CD18B49FEF732FAE5
:101E00002866FEF75CFDA861286EFEF71CFCDFF873
:101E10001C825A464346FEF748FBFEF727FCFEF7B6
:101E20004EFDE861286EFEF70EFC5A464346FEF76B
:101E30009BFAFEF71BFCFEF742FD286281460299E1
:101E4000A869FEF715FAE86082460299E869FEF78C
:101E50000FFA2861804648460299FEF709FA814642
:101E6000686173495046FEF7ABF98246E8627049F3
:101E70004046FEF7A5F9804628636D494846FEF7BF
:101E80009FF9814668636B495046FEF7F1F9DFF828
:101E9000A8A15146FEF71EFAFEF7C1FB674908608C
:101EA00064494046FEF7E4F95146FEF713FAFEF79F
:101EB000B6FB6249091D08605E494846FEF7D8F93D
:101EC0005146FEF707FAFEF7AAFB5C4908310860A5
:101ED0000120287020460399FEF7CAF93946E865C3
:101EE000FEF7E0FB00D2EF653046E96DFEF7DAFB66
:101EF00000D2EE65D5E91710FEF762F92866696A27
:101F00000C46FEF7AFF94E49884204D94D492046A8
:101F1000FEF7A8F928662146286EFEF7A3F9B0F56A
:101F2000000F00DB2C66286EFEF7C9FCA861286E46
:101F3000FEF789FB3D4E5C465A463346FEF7B5FA3E
:101F4000FEF794FBFEF7BBFCE861286EFEF77BFB17
:101F500022463346FEF708FAFEF788FBFEF7AFFC91
:101F6000286206460299A869FEF782F9E8600446ED
:101F70000299E869FEF77CF9286107463046029924
:101F8000FEF776F9DFF8A8800646686141462046EC
:101F9000FEF716F90446E86241463846FEF710F9A6
:101FA0000746286341463046FEF70AF96863214E2A
:101FB000054631462046FEF75BF91F4C2146FEF7E9
:101FC00089F9FEF72CFB1D49086031463846FEF7BB
:101FD0004FF92146FEF77EF9FEF721FB1749091D4F
:101FE000086031462846FEF743F92146FEF772F9AC
:101FF000FEF715FB114908310860BDE8FF9F00009E
:10200000000034430000B443000034C31800002033
:102010000000C8420000C8C20000B442399D52A26C
:1020200046DF913F66732D38DB0FC93F52C1004038
:102030000000C04000007A450000C041342C01403F
:10204000DB0F49C0DB0F49402DE9FC41194C022050
:1020500020701948FEF74FFFFEF7ADFA054601461E
:102060006060E068FEF7FEF8A060217849B9226957
:102070001249CDE9001201460023114A2846FEF715
:10208000F9FD20780F4D104E104F012805D12B4639
:1020900032463946A06800F0A7F82078022806D119
:1020A0000095D4E9010133463A46FFF76BFEBDE8DF
:1020B000FC810000000000207C0000200AD7233CA7
:1020C000CDCC8C3FCDCC4C3D6F12833A0000C0404C
:1020D00010B54FF080414A6A0A480368D21AB2F537
:1020E000FA7F0DD2496A0160084C07492046FFF784
:1020F00031FA2046BDE8104040F20441FFF72ABA09
:1021000010BD000014000020100010040008014061
:10211000294808B5816941F001018161816901F0B7
:1021200001010091C16941F08051C161C069234939
:1021300000F08050009008684FF6FF021040204ADF
:1021400040F4407010430860FFF788FDFFF78CFBF8
:10215000FFF7BAFBFFF7A4FCFFF772FCFFF76AFD7D
:102160001848016841F001010160416C41F40041EF
:1021700041641548FEF7DCFE1E20FFF7E6FD19203E
:10218000FFF7E3FD12491148C86001210F20FEF757
:10219000BBFCFEF73DFD4EF620744FF46F459222D6
:1021A0000CA12046FEF710FC93220AA12846FEF758
:1021B0000BFCFFF78DFFF2E7001002400CED00E092
:1021C0000000FA05002C01407C00002000C8AF4848
:1021D000000000202E2E2F436F72652F5372632F45
:1021E0006D61696E2E6300002DE9FF5F044689482A
:1021F000894D1F46844205DD29462046FEF735F805
:1022000080F000448548844204D929462046FDF7E1
:10221000D7FF0446824D8348EC64844202DC824846
:10222000844203D981482C6500686865287887F066
:10223000004600286DD16862FEF741FBA861686A1C
:10224000FEF701FADFF8E881DFF8E89142464B46F5
:10225000FEF72BF9FEF70AFAFEF731FBE861686A30
:10226000FEF7F1F942464B46FEF77EF8FEF7FEF91F
:10227000FEF725FB286281460199A869FDF7F8FF62
:10228000E86080460199E869FDF7F2FF286183461E
:1022900048460199FDF7ECFF814668616649404672
:1022A000FDF78EFF8246E86263495846FDF788FFD6
:1022B0008046286360494846FDF782FFDFF87CB11D
:1022C0008146686359465046FDF7D2FFDFF870A19A
:1022D0005146FDF7FFFFFEF7A2F95A49086059463B
:1022E0004046FDF7C5FF5146FDF7F4FFFEF797F9AD
:1022F0005449091D086059464846FDF7B9FF514643
:10230000FDF7E8FFFEF78BF94E4908310860012020
:10231000287020460299FDF7ABFF3946E865FEF7C5
:10232000C1F900D2EF653046E96DFEF7BBF900D286
:10233000EE65E96D686AFDF743FF6862FEF7BFFA74
:10234000A861686AFEF77FF9394C3A4E2246334657
:10235000FEF7ABF8FEF78AF9FEF7B1FAE861686AB2
:10236000FEF771F922463346FDF7FEFFFEF77EF9D0
:10237000FEF7A5FA286206460199A869FDF778FFDD
:10238000E86004460199E869FDF772FF2861074695
:1023900030460199FDF76CFFDFF89C8006466861C6
:1023A00041462046FDF70CFF0446E86241463846A8
:1023B000FDF706FF0746286341463046FDF700FF5C
:1023C00068631E4E054631462046FDF751FF1C4C02
:1023D0002146FDF77FFFFEF722F91A4908603146D2
:1023E0003846FDF745FF2146FDF774FFFEF717F964
:1023F0001449091D086031462846FDF739FF21467A
:10240000FDF768FFFEF70BF90E4908310860BDE8DB
:10241000FF9F0000000034430000B443000034C3B9
:10242000180000200000C8420000C8C204000020BC
:1024300066732D3852C100400000C04000007A454C
:102440000000C041342C01400000000004040400DE
:102450000008000000080000080000000800020456
:1024600006080A0C00000000040404000008000034
:102470000008000001000101400000008001002070
:102480008005002000060020000000000000000081
:10249000920E493CB10AC93C2BC3163D2EFB483D68
:1024A000752B7B3D04A9963D80B6AF3D36BDC83D3A
:1024B0002FBCE13D73B2FA3D87CF093E8340163E03
:1024C000B5AB223EA2102F3ECF6E3B3EC2C5473E6B
:1024D0000115543E135C603E7F9A6C3ECCCF783E33
:1024E000C07D823E938E883E229A8E3E32A0943EDC
:1024F00086A09A3EE59AA03E128FA63ED47CAC3EC2
:10250000EF63B23E2A44B83E491DBE3E15EFC33EBE
:1025100053B9C93ECA7BCF3E4136D53E80E8DA3E4C
:102520004F92E03E7533E63EBBCBEB3EEA5AF13EBE
:10253000CBE0F63E275DFC3EE4E7003F3D9C033FD9
:10254000824B063F9BF5083F6B9A0B3FDA390E3FF3
:10255000CDD3103F2A68133FD9F6153FC07F183FEF
:10256000C6021B3FD17F1D3FCBF61F3F9967223F1D
:1025700025D2243F5636273F1594293F4AEB2B3F5F
:10258000DE3B2E3FBB85303FC9C8323FF304353FA9
:10259000233A373F4268393F3B8F3B3FF9AE3D3FDF
:1025A00067C73F3F70D8413F01E2433F03E4453FE7
:1025B00065DE473F12D1493FF8BB4B3F029F4D3F7D
:1025C000207A4F3F3D4D513F4918533F31DB543F37
:1025D000E595563F5348583F6AF2593F1A945B3F7E
:1025E000532D5D3F05BE5E3F2146603F97C5613F6D
:1025F0005A3C633F59AA643F880F663FD86B673FD8
:102600003CBF683FA7096A3F0C4B6B3F5E836C3F42
:1026100093B26D3F9ED86E3F73F56F3F0809713FCF
:102620005213723F4714733FDD0B743F0BFA743F34
:10263000C6DE753F07BA763FC58B773FF853783FC4
:102640009812793F9DC7793F02737A3FBE147B3F52
:10265000CDAC7B3F283B7C3FC9BF7C3FAC3A7D3F44
:10266000CCAB7D3F23137E3FB0707E3F6DC47E3F79
:10267000580E7F3F6D4E7F3FAB847F3F0FB17F3F52
:1026800097D37F3F43EC7F3F11FB7F3F0000803FAC
:1026900011FB7F3F43EC7F3F97D37F3F0FB17F3FDD
:1026A000AB847F3F6D4E7F3F580E7F3F6DC47E3FB2
:1026B000B0707E3F23137E3FCCAB7D3FAC3A7D3F75
:1026C000C9BF7C3F283B7C3FCDAC7B3FBE147B3FEA
:1026D00002737A3F9DC7793F9812793FF853783F4C
:1026E000C58B773F07BA763FC6DE753F0BFA743F5E
:1026F000DD0B743F4714733F5213723F0809713F5B
:1027000073F56F3F9ED86E3F93B26D3F5E836C3F13
:102710000C4B6B3FA7096A3F3CBF683FD86B673FD4
:10272000880F663F59AA643F5A3C633F97C5613F93
:102730002146603F05BE5E3F532D5D3F1A945B3FCF
:102740006AF2593F5348583FE595563F31DB543FB5
:102750004918533F3D4D513F207A4F3F029F4D3F17
:10276000F8BB4B3F12D1493F65DE473F03E4453F8D
:1027700001E2433F70D8413F67C73F3FF9AE3D3F5D
:102780003B8F3B3F4268393F233A373FF304353FA5
:10279000C9C8323FBB85303FDE3B2E3F4AEB2B3F63
:1027A0001594293F5636273F25D2243F9967223F6B
:1027B000CBF61F3FD17F1D3FC6021B3FC07F183F96
:1027C000D9F6153F2A68133FCDD3103FDA390E3FB3
:1027D0006B9A0B3F9BF5083F824B063F3D9C033FA6
:1027E000E4E7003F275DFC3ECBE0F63EEA5AF13ECF
:1027F000BBCBEB3E7533E63E4F92E03E80E8DA3EDF
:102800004136D53ECA7BCF3E53B9C93E15EFC33ED4
:10281000491DBE3E2A44B83EEF63B23ED47CAC3E76
:10282000128FA63EE59AA03E86A09A3E32A0943E24
:10283000229A8E3E938E883EC07D823ECCCF783EDB
:102840007F9A6C3E135C603E0115543EC2C5473E04
:10285000CF6E3B3EA2102F3EB5AB223E8340163ECC
:1028600087CF093E73B2FA3D2FBCE13D36BDC83D6E
:1028700080B6AF3D04A9963D752B7B3D2EFB483DB0
:102880002BC3163DB10AC93C920E493C0000000022
:10289000920E49BCB10AC9BC2BC316BD2EFB48BD64
:1028A000752B7BBD04A996BD80B6AFBD36BDC8BD36
:1028B0002FBCE1BD73B2FABD87CF09BE834016BEFF
:1028C000B5AB22BEA2102FBECF6E3BBEC2C547BE67
:1028D000011554BE135C60BE7F9A6CBECCCF78BE2F
:1028E000C07D82BE938E88BE229A8EBE32A094BED8
:1028F00086A09ABEE59AA0BE128FA6BED47CACBEBE
:10290000EF63B2BE2A44B8BE491DBEBE15EFC3BEBA
:1029100053B9C9BECA7BCFBE4136D5BE80E8DABE48
:102920004F92E0BE7533E6BEBBCBEBBEEA5AF1BEBA
:10293000CBE0F6BE275DFCBEE4E700BF3D9C03BFD5
:10294000824B06BF9BF508BF6B9A0BBFDA390EBFEF
:10295000CDD310BF2A6813BFD9F615BFC07F18BFEB
:10296000C6021BBFD17F1DBFCBF61FBF996722BF19
:1029700025D224BF563627BF159429BF4AEB2BBF5B
:10298000DE3B2EBFBB8530BFC9C832BFF30435BFA5
:10299000233A37BF426839BF3B8F3BBFF9AE3DBFDB
:1029A00067C73FBF70D841BF01E243BF03E445BFE3
:1029B00065DE47BF12D149BFF8BB4BBF029F4DBF79
:1029C000207A4FBF3D4D51BF491853BF31DB54BF33
:1029D000E59556BF534858BF6AF259BF1A945BBF7A
:1029E000532D5DBF05BE5EBF214660BF97C561BF69
:1029F0005A3C63BF59AA64BF880F66BFD86B67BFD4
:102A00003CBF68BFA7096ABF0C4B6BBF5E836CBF3E
:102A100093B26DBF9ED86EBF73F56FBF080971BFCB
:102A2000521372BF471473BFDD0B74BF0BFA74BF30
:102A3000C6DE75BF07BA76BFC58B77BFF85378BFC0
:102A4000981279BF9DC779BF02737ABFBE147BBF4E
:102A5000CDAC7BBF283B7CBFC9BF7CBFAC3A7DBF40
:102A6000CCAB7DBF23137EBFB0707EBF6DC47EBF75
:102A7000580E7FBF6D4E7FBFAB847FBF0FB17FBF4E
:102A800097D37FBF43EC7FBF11FB7FBF000080BFA8
:102A900011FB7FBF43EC7FBF97D37FBF0FB17FBFD9
:102AA000AB847FBF6D4E7FBF580E7FBF6DC47EBFAE
:102AB000B0707EBF23137EBFCCAB7DBFAC3A7DBF71
:102AC000C9BF7CBF283B7CBFCDAC7BBFBE147BBFE6
:102AD00002737ABF9DC779BF981279BFF85378BF48
:102AE000C58B77BF07BA76BFC6DE75BF0BFA74BF5A
:102AF000DD0B74BF471473BF521372BF080971BF57
:102B000073F56FBF9ED86EBF93B26DBF5E836CBF0F
:102B10000C4B6BBFA7096ABF3CBF68BFD86B67BFD0
:102B2000880F66BF59AA64BF5A3C63BF97C561BF8F
:102B3000214660BF05BE5EBF532D5DBF1A945BBFCB
:102B40006AF259BF534858BFE59556BF31DB54BFB1
:102B5000491853BF3D4D51BF207A4FBF029F4DBF13
:102B6000F8BB4BBF12D149BF65DE47BF03E445BF89
:102B700001E243BF70D841BF67C73FBFF9AE3DBF59
:102B80003B8F3BBF426839BF233A37BFF30435BFA1
:102B9000C9C832BFBB8530BFDE3B2EBF4AEB2BBF5F
:102BA000159429BF563627BF25D224BF996722BF67
:102BB000CBF61FBFD17F1DBFC6021BBFC07F18BF92
:102BC000D9F615BF2A6813BFCDD310BFDA390EBFAF
:102BD0006B9A0BBF9BF508BF824B06BF3D9C03BFA2
:102BE000E4E700BF275DFCBECBE0F6BEEA5AF1BECB
:102BF000BBCBEBBE7533E6BE4F92E0BE80E8DABEDB
:102C00004136D5BECA7BCFBE53B9C9BE15EFC3BED0
:102C1000491DBEBE2A44B8BEEF63B2BED47CACBE72
:102C2000128FA6BEE59AA0BE86A09ABE32A094BE20
:102C3000229A8EBE938E88BEC07D82BECCCF78BED7
:102C40007F9A6CBE135C60BE011554BEC2C547BE00
:102C5000CF6E3BBEA2102FBEB5AB22BE834016BEC8
:102C600087CF09BE73B2FABD2FBCE1BD36BDC8BD6A
:102C700080B6AFBD04A996BD752B7BBD2EFB48BDAC
:102C80002BC316BDB10AC9BC920E49BC000000801E
:102C9000B02C00080000002048010000680800086F
:102CA000E82C000848010020E0080000741D00081E
:102CB000017D120202100323FD0225FFFF803E3238
:102CC00001267797E8030614A24A0412081240145A
:102CD0000C014023404029084B8080081201037DED
:082CE000010F19A81324F400F0
:04000005080000ED02
:00000001FF
